{"abi":[{"type":"constructor","inputs":[],"stateMutability":"nonpayable"},{"type":"function","name":"allowance","inputs":[{"name":"","type":"address","internalType":"address"},{"name":"","type":"address","internalType":"address"}],"outputs":[{"name":"","type":"uint256","internalType":"uint256"}],"stateMutability":"view"},{"type":"function","name":"approve","inputs":[{"name":"spender","type":"address","internalType":"address"},{"name":"value","type":"uint256","internalType":"uint256"}],"outputs":[{"name":"","type":"bool","internalType":"bool"}],"stateMutability":"nonpayable"},{"type":"function","name":"balanceOf","inputs":[{"name":"","type":"address","internalType":"address"}],"outputs":[{"name":"","type":"uint256","internalType":"uint256"}],"stateMutability":"view"},{"type":"function","name":"decimals","inputs":[],"outputs":[{"name":"","type":"uint8","internalType":"uint8"}],"stateMutability":"view"},{"type":"function","name":"name","inputs":[],"outputs":[{"name":"","type":"string","internalType":"string"}],"stateMutability":"view"},{"type":"function","name":"owner","inputs":[],"outputs":[{"name":"","type":"address","internalType":"address"}],"stateMutability":"view"},{"type":"function","name":"symbol","inputs":[],"outputs":[{"name":"","type":"string","internalType":"string"}],"stateMutability":"view"},{"type":"function","name":"totalSupply","inputs":[],"outputs":[{"name":"","type":"uint256","internalType":"uint256"}],"stateMutability":"view"},{"type":"function","name":"transfer","inputs":[{"name":"to","type":"address","internalType":"address"},{"name":"value","type":"uint256","internalType":"uint256"}],"outputs":[{"name":"","type":"bool","internalType":"bool"}],"stateMutability":"nonpayable"},{"type":"function","name":"transferFrom","inputs":[{"name":"from","type":"address","internalType":"address"},{"name":"to","type":"address","internalType":"address"},{"name":"value","type":"uint256","internalType":"uint256"}],"outputs":[{"name":"","type":"bool","internalType":"bool"}],"stateMutability":"nonpayable"},{"type":"event","name":"Approval","inputs":[{"name":"owner","type":"address","indexed":true,"internalType":"address"},{"name":"spender","type":"address","indexed":true,"internalType":"address"},{"name":"value","type":"uint256","indexed":false,"internalType":"uint256"}],"anonymous":false},{"type":"event","name":"Transfer","inputs":[{"name":"from","type":"address","indexed":true,"internalType":"address"},{"name":"to","type":"address","indexed":true,"internalType":"address"},{"name":"value","type":"uint256","indexed":false,"internalType":"uint256"}],"anonymous":false}],"bytecode":{"object":"0x60806040526040518060400160405280601481526020017f446566696e6974656c79204e6f742041205275670000000000000000000000008152505f908162000049919062000406565b506040518060400160405280600381526020017f52554700000000000000000000000000000000000000000000000000000000008152506001908162000090919062000406565b503480156200009d575f80fd5b503360035f6101000a81548173ffffffffffffffffffffffffffffffffffffffff021916908373ffffffffffffffffffffffffffffffffffffffff16021790555069d3c21bcecceda100000060028190555060025460045f3373ffffffffffffffffffffffffffffffffffffffff1673ffffffffffffffffffffffffffffffffffffffff1681526020019081526020015f20819055503373ffffffffffffffffffffffffffffffffffffffff165f73ffffffffffffffffffffffffffffffffffffffff167fddf252ad1be2c89b69c2b068fc378daa952ba7f163c4a11628f55a4df523b3ef600254604051620001949190620004fb565b60405180910390a362000516565b5f81519050919050565b7f4e487b71000000000000000000000000000000000000000000000000000000005f52604160045260245ffd5b7f4e487b71000000000000000000000000000000000000000000000000000000005f52602260045260245ffd5b5f60028204905060018216806200021e57607f821691505b602082108103620002345762000233620001d9565b5b50919050565b5f819050815f5260205f209050919050565b5f6020601f8301049050919050565b5f82821b905092915050565b5f60088302620002987fffffffffffffffffffffffffffffffffffffffffffffffffffffffffffffffff826200025b565b620002a486836200025b565b95508019841693508086168417925050509392505050565b5f819050919050565b5f819050919050565b5f620002ee620002e8620002e284620002bc565b620002c5565b620002bc565b9050919050565b5f819050919050565b6200030983620002ce565b620003216200031882620002f5565b84845462000267565b825550505050565b5f90565b6200033762000329565b62000344818484620002fe565b505050565b5b818110156200036b576200035f5f826200032d565b6001810190506200034a565b5050565b601f821115620003ba5762000384816200023a565b6200038f846200024c565b810160208510156200039f578190505b620003b7620003ae856200024c565b83018262000349565b50505b505050565b5f82821c905092915050565b5f620003dc5f1984600802620003bf565b1980831691505092915050565b5f620003f68383620003cb565b9150826002028217905092915050565b6200041182620001a2565b67ffffffffffffffff8111156200042d576200042c620001ac565b5b62000439825462000206565b620004468282856200036f565b5f60209050601f8311600181146200047c575f841562000467578287015190505b620004738582620003e9565b865550620004e2565b601f1984166200048c866200023a565b5f5b82811015620004b5578489015182556001820191506020850194506020810190506200048e565b86831015620004d55784890151620004d1601f891682620003cb565b8355505b6001600288020188555050505b505050505050565b620004f581620002bc565b82525050565b5f602082019050620005105f830184620004ea565b92915050565b610de480620005245f395ff3fe608060405234801561000f575f80fd5b506004361061009c575f3560e01c806370a082311161006457806370a082311461015a5780638da5cb5b1461018a57806395d89b41146101a8578063a9059cbb146101c6578063dd62ed3e146101f65761009c565b806306fdde03146100a0578063095ea7b3146100be57806318160ddd146100ee57806323b872dd1461010c578063313ce5671461013c575b5f80fd5b6100a8610226565b6040516100b5919061098f565b60405180910390f35b6100d860048036038101906100d39190610a40565b6102b1565b6040516100e59190610a98565b60405180910390f35b6100f661039e565b6040516101039190610ac0565b60405180910390f35b61012660048036038101906101219190610ad9565b6103a4565b6040516101339190610a98565b60405180910390f35b610144610684565b6040516101519190610b44565b60405180910390f35b610174600480360381019061016f9190610b5d565b610689565b6040516101819190610ac0565b60405180910390f35b61019261069e565b60405161019f9190610b97565b60405180910390f35b6101b06106c3565b6040516101bd919061098f565b60405180910390f35b6101e060048036038101906101db9190610a40565b61074f565b6040516101ed9190610a98565b60405180910390f35b610210600480360381019061020b9190610bb0565b6108e5565b60405161021d9190610ac0565b60405180910390f35b5f805461023290610c1b565b80601f016020809104026020016040519081016040528092919081815260200182805461025e90610c1b565b80156102a95780601f10610280576101008083540402835291602001916102a9565b820191905f5260205f20905b81548152906001019060200180831161028c57829003601f168201915b505050505081565b5f8160055f3373ffffffffffffffffffffffffffffffffffffffff1673ffffffffffffffffffffffffffffffffffffffff1681526020019081526020015f205f8573ffffffffffffffffffffffffffffffffffffffff1673ffffffffffffffffffffffffffffffffffffffff1681526020019081526020015f20819055508273ffffffffffffffffffffffffffffffffffffffff163373ffffffffffffffffffffffffffffffffffffffff167f8c5be1e5ebec7d5bd14f71427d1e84f3dd0314c0f7b2291e5b200ac8c7c3b9258460405161038c9190610ac0565b60405180910390a36001905092915050565b60025481565b5f8160045f8673ffffffffffffffffffffffffffffffffffffffff1673ffffffffffffffffffffffffffffffffffffffff1681526020019081526020015f20541015610425576040517f08c379a000000000000000000000000000000000000000000000000000000000815260040161041c90610c95565b60405180910390fd5b8160055f8673ffffffffffffffffffffffffffffffffffffffff1673ffffffffffffffffffffffffffffffffffffffff1681526020019081526020015f205f3373ffffffffffffffffffffffffffffffffffffffff1673ffffffffffffffffffffffffffffffffffffffff1681526020019081526020015f205410156104e0576040517f08c379a00000000000000000000000000000000000000000000000000000000081526004016104d790610cfd565b60405180910390fd5b8160055f8673ffffffffffffffffffffffffffffffffffffffff1673ffffffffffffffffffffffffffffffffffffffff1681526020019081526020015f205f3373ffffffffffffffffffffffffffffffffffffffff1673ffffffffffffffffffffffffffffffffffffffff1681526020019081526020015f205f8282546105679190610d48565b925050819055508160045f8673ffffffffffffffffffffffffffffffffffffffff1673ffffffffffffffffffffffffffffffffffffffff1681526020019081526020015f205f8282546105ba9190610d48565b925050819055508160045f8573ffffffffffffffffffffffffffffffffffffffff1673ffffffffffffffffffffffffffffffffffffffff1681526020019081526020015f205f82825461060d9190610d7b565b925050819055508273ffffffffffffffffffffffffffffffffffffffff168473ffffffffffffffffffffffffffffffffffffffff167fddf252ad1be2c89b69c2b068fc378daa952ba7f163c4a11628f55a4df523b3ef846040516106719190610ac0565b60405180910390a3600190509392505050565b601281565b6004602052805f5260405f205f915090505481565b60035f9054906101000a900473ffffffffffffffffffffffffffffffffffffffff1681565b600180546106d090610c1b565b80601f01602080910402602001604051908101604052809291908181526020018280546106fc90610c1b565b80156107475780601f1061071e57610100808354040283529160200191610747565b820191905f5260205f20905b81548152906001019060200180831161072a57829003601f168201915b505050505081565b5f8160045f3373ffffffffffffffffffffffffffffffffffffffff1673ffffffffffffffffffffffffffffffffffffffff1681526020019081526020015f205410156107d0576040517f08c379a00000000000000000000000000000000000000000000000000000000081526004016107c790610c95565b60405180910390fd5b8160045f3373ffffffffffffffffffffffffffffffffffffffff1673ffffffffffffffffffffffffffffffffffffffff1681526020019081526020015f205f82825461081c9190610d48565b925050819055508160045f8573ffffffffffffffffffffffffffffffffffffffff1673ffffffffffffffffffffffffffffffffffffffff1681526020019081526020015f205f82825461086f9190610d7b565b925050819055508273ffffffffffffffffffffffffffffffffffffffff163373ffffffffffffffffffffffffffffffffffffffff167fddf252ad1be2c89b69c2b068fc378daa952ba7f163c4a11628f55a4df523b3ef846040516108d39190610ac0565b60405180910390a36001905092915050565b6005602052815f5260405f20602052805f5260405f205f91509150505481565b5f81519050919050565b5f82825260208201905092915050565b5f5b8381101561093c578082015181840152602081019050610921565b5f8484015250505050565b5f601f19601f8301169050919050565b5f61096182610905565b61096b818561090f565b935061097b81856020860161091f565b61098481610947565b840191505092915050565b5f6020820190508181035f8301526109a78184610957565b905092915050565b5f80fd5b5f73ffffffffffffffffffffffffffffffffffffffff82169050919050565b5f6109dc826109b3565b9050919050565b6109ec816109d2565b81146109f6575f80fd5b50565b5f81359050610a07816109e3565b92915050565b5f819050919050565b610a1f81610a0d565b8114610a29575f80fd5b50565b5f81359050610a3a81610a16565b92915050565b5f8060408385031215610a5657610a556109af565b5b5f610a63858286016109f9565b9250506020610a7485828601610a2c565b9150509250929050565b5f8115159050919050565b610a9281610a7e565b82525050565b5f602082019050610aab5f830184610a89565b92915050565b610aba81610a0d565b82525050565b5f602082019050610ad35f830184610ab1565b92915050565b5f805f60608486031215610af057610aef6109af565b5b5f610afd868287016109f9565b9350506020610b0e868287016109f9565b9250506040610b1f86828701610a2c565b9150509250925092565b5f60ff82169050919050565b610b3e81610b29565b82525050565b5f602082019050610b575f830184610b35565b92915050565b5f60208284031215610b7257610b716109af565b5b5f610b7f848285016109f9565b91505092915050565b610b91816109d2565b82525050565b5f602082019050610baa5f830184610b88565b92915050565b5f8060408385031215610bc657610bc56109af565b5b5f610bd3858286016109f9565b9250506020610be4858286016109f9565b9150509250929050565b7f4e487b71000000000000000000000000000000000000000000000000000000005f52602260045260245ffd5b5f6002820490506001821680610c3257607f821691505b602082108103610c4557610c44610bee565b5b50919050565b7f496e73756666696369656e742062616c616e63650000000000000000000000005f82015250565b5f610c7f60148361090f565b9150610c8a82610c4b565b602082019050919050565b5f6020820190508181035f830152610cac81610c73565b9050919050565b7f496e73756666696369656e7420616c6c6f77616e6365000000000000000000005f82015250565b5f610ce760168361090f565b9150610cf282610cb3565b602082019050919050565b5f6020820190508181035f830152610d1481610cdb565b9050919050565b7f4e487b71000000000000000000000000000000000000000000000000000000005f52601160045260245ffd5b5f610d5282610a0d565b9150610d5d83610a0d565b9250828203905081811115610d7557610d74610d1b565b5b92915050565b5f610d8582610a0d565b9150610d9083610a0d565b9250828201905080821115610da857610da7610d1b565b5b9291505056fea264697066735822122095be52670fc76471f75a360953c9b40d75c9ca3e9a63d8a64e0168d801b73c3564736f6c63430008180033","linkReferences":{}},"methodIdentifiers":{"allowance(address,address)":"dd62ed3e","approve(address,uint256)":"095ea7b3","balanceOf(address)":"70a08231","decimals()":"313ce567","name()":"06fdde03","owner()":"8da5cb5b","symbol()":"95d89b41","totalSupply()":"18160ddd","transfer(address,uint256)":"a9059cbb","transferFrom(address,address,uint256)":"23b872dd"},"id":0}