{"abi":[{"type":"function","name":"attest","inputs":[{"name":"token","type":"address","internalType":"address"},{"name":"score","type":"uint8","internalType":"uint8"},{"name":"verdict","type":"uint8","internalType":"enum AgentShieldRegistry.Verdict"},{"name":"reasons","type":"string","internalType":"string"}],"outputs":[],"stateMutability":"nonpayable"},{"type":"function","name":"attestationAge","inputs":[{"name":"token","type":"address","internalType":"address"}],"outputs":[{"name":"","type":"uint256","internalType":"uint256"}],"stateMutability":"view"},{"type":"function","name":"bountyOf","inputs":[{"name":"","type":"address","internalType":"address"}],"outputs":[{"name":"","type":"uint256","internalType":"uint256"}],"stateMutability":"view"},{"type":"function","name":"fundScreening","inputs":[{"name":"token","type":"address","internalType":"address"}],"outputs":[],"stateMutability":"payable"},{"type":"function","name":"getAttestation","inputs":[{"name":"token","type":"address","internalType":"address"}],"outputs":[{"name":"attester","type":"address","internalType":"address"},{"name":"score","type":"uint8","internalType":"uint8"},{"name":"verdict","type":"uint8","internalType":"enum AgentShieldRegistry.Verdict"},{"name":"reasons","type":"string","internalType":"string"},{"name":"timestamp","type":"uint64","internalType":"uint64"},{"name":"revision","type":"uint32","internalType":"uint32"}],"stateMutability":"view"},{"type":"function","name":"isFlagged","inputs":[{"name":"token","type":"address","internalType":"address"}],"outputs":[{"name":"","type":"bool","internalType":"bool"}],"stateMutability":"view"},{"type":"function","name":"isSafe","inputs":[{"name":"token","type":"address","internalType":"address"}],"outputs":[{"name":"","type":"bool","internalType":"bool"}],"stateMutability":"view"},{"type":"function","name":"isScreened","inputs":[{"name":"token","type":"address","internalType":"address"}],"outputs":[{"name":"","type":"bool","internalType":"bool"}],"stateMutability":"view"},{"type":"function","name":"scoreOf","inputs":[{"name":"token","type":"address","internalType":"address"}],"outputs":[{"name":"","type":"uint8","internalType":"uint8"}],"stateMutability":"view"},{"type":"function","name":"totalAttestations","inputs":[],"outputs":[{"name":"","type":"uint256","internalType":"uint256"}],"stateMutability":"view"},{"type":"event","name":"BountyPaid","inputs":[{"name":"token","type":"address","indexed":true,"internalType":"address"},{"name":"attester","type":"address","indexed":true,"internalType":"address"},{"name":"amount","type":"uint256","indexed":false,"internalType":"uint256"}],"anonymous":false},{"type":"event","name":"ScreeningFunded","inputs":[{"name":"token","type":"address","indexed":true,"internalType":"address"},{"name":"sponsor","type":"address","indexed":true,"internalType":"address"},{"name":"amount","type":"uint256","indexed":false,"internalType":"uint256"},{"name":"totalBounty","type":"uint256","indexed":false,"internalType":"uint256"}],"anonymous":false},{"type":"event","name":"TokenScreened","inputs":[{"name":"token","type":"address","indexed":true,"internalType":"address"},{"name":"attester","type":"address","indexed":true,"internalType":"address"},{"name":"score","type":"uint8","indexed":false,"internalType":"uint8"},{"name":"verdict","type":"uint8","indexed":false,"internalType":"enum AgentShieldRegistry.Verdict"},{"name":"reasons","type":"string","indexed":false,"internalType":"string"},{"name":"timestamp","type":"uint64","indexed":false,"internalType":"uint64"},{"name":"revision","type":"uint32","indexed":false,"internalType":"uint32"}],"anonymous":false}],"bytecode":{"object":"0x608060405234801561000f575f80fd5b50611b978061001d5f395ff3fe608060405260043610610090575f3560e01c8063769a28ac11610058578063769a28ac1461018e57806394412943146101ca578063c01f4af614610206578063f9b717971461022e578063fef48a991461026f57610090565b806310c132b214610094578063133af456146100d057806358785ac81461010c5780635eab0c5f146101285780636048574214610164575b5f80fd5b34801561009f575f80fd5b506100ba60048036038101906100b59190611000565b6102ab565b6040516100c79190611045565b60405180910390f35b3480156100db575f80fd5b506100f660048036038101906100f19190611000565b610326565b6040516101039190611079565b60405180910390f35b61012660048036038101906101219190611000565b6103f5565b005b348015610133575f80fd5b5061014e60048036038101906101499190611000565b61059f565b60405161015b91906110aa565b60405180910390f35b34801561016f575f80fd5b5061017861068a565b60405161018591906110aa565b60405180910390f35b348015610199575f80fd5b506101b460048036038101906101af9190611000565b610690565b6040516101c19190611045565b60405180910390f35b3480156101d5575f80fd5b506101f060048036038101906101eb9190611000565b61070b565b6040516101fd91906110aa565b60405180910390f35b348015610211575f80fd5b5061022c60048036038101906102279190611171565b610720565b005b348015610239575f80fd5b50610254600480360381019061024f9190611000565b610d52565b60405161026696959493929190611341565b60405180910390f35b34801561027a575f80fd5b5061029560048036038101906102909190611000565b610f24565b6040516102a29190611045565b60405180910390f35b5f8060038111156102bf576102be611204565b5b5f808473ffffffffffffffffffffffffffffffffffffffff1673ffffffffffffffffffffffffffffffffffffffff1681526020019081526020015f205f0160159054906101000a900460ff16600381111561031d5761031c611204565b5b14159050919050565b5f805f808473ffffffffffffffffffffffffffffffffffffffff1673ffffffffffffffffffffffffffffffffffffffff1681526020019081526020015f2090505f600381111561037957610378611204565b5b815f0160159054906101000a900460ff16600381111561039c5761039b611204565b5b036103dc576040517f08c379a00000000000000000000000000000000000000000000000000000000081526004016103d3906113f1565b60405180910390fd5b805f0160149054906101000a900460ff16915050919050565b5f73ffffffffffffffffffffffffffffffffffffffff168173ffffffffffffffffffffffffffffffffffffffff1603610463576040517f08c379a000000000000000000000000000000000000000000000000000000000815260040161045a90611459565b60405180910390fd5b5f34116104a5576040517f08c379a000000000000000000000000000000000000000000000000000000000815260040161049c906114c1565b60405180910390fd5b3460015f8373ffffffffffffffffffffffffffffffffffffffff1673ffffffffffffffffffffffffffffffffffffffff1681526020019081526020015f205f8282546104f1919061150c565b925050819055503373ffffffffffffffffffffffffffffffffffffffff168173ffffffffffffffffffffffffffffffffffffffff167f7965a972e28d03c71ccfcd7619f1658bdecece15bb61872e26d4d29b052014c03460015f8673ffffffffffffffffffffffffffffffffffffffff1673ffffffffffffffffffffffffffffffffffffffff1681526020019081526020015f205460405161059492919061153f565b60405180910390a350565b5f805f808473ffffffffffffffffffffffffffffffffffffffff1673ffffffffffffffffffffffffffffffffffffffff1681526020019081526020015f2090505f60038111156105f2576105f1611204565b5b815f0160159054906101000a900460ff16600381111561061557610614611204565b5b03610655576040517f08c379a000000000000000000000000000000000000000000000000000000000815260040161064c906113f1565b60405180910390fd5b806002015f9054906101000a900467ffffffffffffffff1667ffffffffffffffff16426106829190611566565b915050919050565b60025481565b5f600160038111156106a5576106a4611204565b5b5f808473ffffffffffffffffffffffffffffffffffffffff1673ffffffffffffffffffffffffffffffffffffffff1681526020019081526020015f205f0160159054906101000a900460ff16600381111561070357610702611204565b5b149050919050565b6001602052805f5260405f205f915090505481565b5f73ffffffffffffffffffffffffffffffffffffffff168573ffffffffffffffffffffffffffffffffffffffff160361078e576040517f08c379a000000000000000000000000000000000000000000000000000000000815260040161078590611459565b60405180910390fd5b60648460ff1611156107d5576040517f08c379a00000000000000000000000000000000000000000000000000000000081526004016107cc906115e3565b60405180910390fd5b600160038111156107e9576107e8611204565b5b8360038111156107fc576107fb611204565b5b148061082c57506002600381111561081757610816611204565b5b83600381111561082a57610829611204565b5b145b8061085a575060038081111561084557610844611204565b5b83600381111561085857610857611204565b5b145b610899576040517f08c379a000000000000000000000000000000000000000000000000000000000815260040161089090611671565b60405180910390fd5b60c88282905011156108e0576040517f08c379a00000000000000000000000000000000000000000000000000000000081526004016108d7906116d9565b60405180910390fd5b5f60015f808873ffffffffffffffffffffffffffffffffffffffff1673ffffffffffffffffffffffffffffffffffffffff1681526020019081526020015f2060020160089054906101000a900463ffffffff1661093d91906116f7565b90506040518060c001604052803373ffffffffffffffffffffffffffffffffffffffff1681526020018660ff16815260200185600381111561098257610981611204565b5b815260200184848080601f0160208091040260200160405190810160405280939291908181526020018383808284375f81840152601f19601f8201169050808301925050505050505081526020014267ffffffffffffffff1681526020018263ffffffff168152505f808873ffffffffffffffffffffffffffffffffffffffff1673ffffffffffffffffffffffffffffffffffffffff1681526020019081526020015f205f820151815f015f6101000a81548173ffffffffffffffffffffffffffffffffffffffff021916908373ffffffffffffffffffffffffffffffffffffffff1602179055506020820151815f0160146101000a81548160ff021916908360ff1602179055506040820151815f0160156101000a81548160ff02191690836003811115610ab457610ab3611204565b5b02179055506060820151816001019081610ace9190611955565b506080820151816002015f6101000a81548167ffffffffffffffff021916908367ffffffffffffffff16021790555060a08201518160020160086101000a81548163ffffffff021916908363ffffffff160217905550905050600160025f828254610b39919061150c565b925050819055503373ffffffffffffffffffffffffffffffffffffffff168673ffffffffffffffffffffffffffffffffffffffff167f96817faf9812a930077892ae064882ad3020dc374a15d872153c46f8222f5f49878787874288604051610ba796959493929190611a5e565b60405180910390a35f60015f8873ffffffffffffffffffffffffffffffffffffffff1673ffffffffffffffffffffffffffffffffffffffff1681526020019081526020015f205490505f811115610d49575f60015f8973ffffffffffffffffffffffffffffffffffffffff1673ffffffffffffffffffffffffffffffffffffffff1681526020019081526020015f20819055505f3373ffffffffffffffffffffffffffffffffffffffff1682604051610c5f90611ae5565b5f6040518083038185875af1925050503d805f8114610c99576040519150601f19603f3d011682016040523d82523d5f602084013e610c9e565b606091505b5050905080610ce2576040517f08c379a0000000000000000000000000000000000000000000000000000000008152600401610cd990611b43565b60405180910390fd5b3373ffffffffffffffffffffffffffffffffffffffff168873ffffffffffffffffffffffffffffffffffffffff167fbcbf239e05ac65bcc1a5612cd36d392b0a0aa8c93e027bc86e7276874834248884604051610d3f91906110aa565b60405180910390a3505b50505050505050565b5f805f60605f805f805f8973ffffffffffffffffffffffffffffffffffffffff1673ffffffffffffffffffffffffffffffffffffffff1681526020019081526020015f2090505f6003811115610dab57610daa611204565b5b815f0160159054906101000a900460ff166003811115610dce57610dcd611204565b5b03610e0e576040517f08c379a0000000000000000000000000000000000000000000000000000000008152600401610e05906113f1565b60405180910390fd5b805f015f9054906101000a900473ffffffffffffffffffffffffffffffffffffffff16815f0160149054906101000a900460ff16825f0160159054906101000a900460ff1683600101846002015f9054906101000a900467ffffffffffffffff168560020160089054906101000a900463ffffffff16828054610e9090611788565b80601f0160208091040260200160405190810160405280929190818152602001828054610ebc90611788565b8015610f075780601f10610ede57610100808354040283529160200191610f07565b820191905f5260205f20905b815481529060010190602001808311610eea57829003601f168201915b505050505092509650965096509650965096505091939550919395565b5f600380811115610f3857610f37611204565b5b5f808473ffffffffffffffffffffffffffffffffffffffff1673ffffffffffffffffffffffffffffffffffffffff1681526020019081526020015f205f0160159054906101000a900460ff166003811115610f9657610f95611204565b5b149050919050565b5f80fd5b5f80fd5b5f73ffffffffffffffffffffffffffffffffffffffff82169050919050565b5f610fcf82610fa6565b9050919050565b610fdf81610fc5565b8114610fe9575f80fd5b50565b5f81359050610ffa81610fd6565b92915050565b5f6020828403121561101557611014610f9e565b5b5f61102284828501610fec565b91505092915050565b5f8115159050919050565b61103f8161102b565b82525050565b5f6020820190506110585f830184611036565b92915050565b5f60ff82169050919050565b6110738161105e565b82525050565b5f60208201905061108c5f83018461106a565b92915050565b5f819050919050565b6110a481611092565b82525050565b5f6020820190506110bd5f83018461109b565b92915050565b6110cc8161105e565b81146110d6575f80fd5b50565b5f813590506110e7816110c3565b92915050565b600481106110f9575f80fd5b50565b5f8135905061110a816110ed565b92915050565b5f80fd5b5f80fd5b5f80fd5b5f8083601f84011261113157611130611110565b5b8235905067ffffffffffffffff81111561114e5761114d611114565b5b60208301915083600182028301111561116a57611169611118565b5b9250929050565b5f805f805f6080868803121561118a57611189610f9e565b5b5f61119788828901610fec565b95505060206111a8888289016110d9565b94505060406111b9888289016110fc565b935050606086013567ffffffffffffffff8111156111da576111d9610fa2565b5b6111e68882890161111c565b92509250509295509295909350565b6111fe81610fc5565b82525050565b7f4e487b71000000000000000000000000000000000000000000000000000000005f52602160045260245ffd5b6004811061124257611241611204565b5b50565b5f81905061125282611231565b919050565b5f61126182611245565b9050919050565b61127181611257565b82525050565b5f81519050919050565b5f82825260208201905092915050565b5f5b838110156112ae578082015181840152602081019050611293565b5f8484015250505050565b5f601f19601f8301169050919050565b5f6112d382611277565b6112dd8185611281565b93506112ed818560208601611291565b6112f6816112b9565b840191505092915050565b5f67ffffffffffffffff82169050919050565b61131d81611301565b82525050565b5f63ffffffff82169050919050565b61133b81611323565b82525050565b5f60c0820190506113545f8301896111f5565b611361602083018861106a565b61136e6040830187611268565b818103606083015261138081866112c9565b905061138f6080830185611314565b61139c60a0830184611332565b979650505050505050565b7f4e6f206174746573746174696f6e20666f72207468697320746f6b656e0000005f82015250565b5f6113db601d83611281565b91506113e6826113a7565b602082019050919050565b5f6020820190508181035f830152611408816113cf565b9050919050565b7f546f6b656e20616464726573732063616e6e6f74206265207a65726f000000005f82015250565b5f611443601c83611281565b915061144e8261140f565b602082019050919050565b5f6020820190508181035f83015261147081611437565b9050919050565b7f4d7573742073656e6420504852530000000000000000000000000000000000005f82015250565b5f6114ab600e83611281565b91506114b682611477565b602082019050919050565b5f6020820190508181035f8301526114d88161149f565b9050919050565b7f4e487b71000000000000000000000000000000000000000000000000000000005f52601160045260245ffd5b5f61151682611092565b915061152183611092565b9250828201905080821115611539576115386114df565b5b92915050565b5f6040820190506115525f83018561109b565b61155f602083018461109b565b9392505050565b5f61157082611092565b915061157b83611092565b9250828203905081811115611593576115926114df565b5b92915050565b7f53636f7265206d75737420626520302d313030000000000000000000000000005f82015250565b5f6115cd601383611281565b91506115d882611599565b602082019050919050565b5f6020820190508181035f8301526115fa816115c1565b9050919050565b7f56657264696374206d75737420626520414c4c4f572c205741524e2c206f72205f8201527f424c4f434b000000000000000000000000000000000000000000000000000000602082015250565b5f61165b602583611281565b915061166682611601565b604082019050919050565b5f6020820190508181035f8301526116888161164f565b9050919050565b7f526561736f6e7320746f6f206c6f6e6720286d617820323030206368617273295f82015250565b5f6116c3602083611281565b91506116ce8261168f565b602082019050919050565b5f6020820190508181035f8301526116f0816116b7565b9050919050565b5f61170182611323565b915061170c83611323565b9250828201905063ffffffff811115611728576117276114df565b5b92915050565b7f4e487b71000000000000000000000000000000000000000000000000000000005f52604160045260245ffd5b7f4e487b71000000000000000000000000000000000000000000000000000000005f52602260045260245ffd5b5f600282049050600182168061179f57607f821691505b6020821081036117b2576117b161175b565b5b50919050565b5f819050815f5260205f209050919050565b5f6020601f8301049050919050565b5f82821b905092915050565b5f600883026118147fffffffffffffffffffffffffffffffffffffffffffffffffffffffffffffffff826117d9565b61181e86836117d9565b95508019841693508086168417925050509392505050565b5f819050919050565b5f61185961185461184f84611092565b611836565b611092565b9050919050565b5f819050919050565b6118728361183f565b61188661187e82611860565b8484546117e5565b825550505050565b5f90565b61189a61188e565b6118a5818484611869565b505050565b5b818110156118c8576118bd5f82611892565b6001810190506118ab565b5050565b601f82111561190d576118de816117b8565b6118e7846117ca565b810160208510156118f6578190505b61190a611902856117ca565b8301826118aa565b50505b505050565b5f82821c905092915050565b5f61192d5f1984600802611912565b1980831691505092915050565b5f611945838361191e565b9150826002028217905092915050565b61195e82611277565b67ffffffffffffffff8111156119775761197661172e565b5b6119818254611788565b61198c8282856118cc565b5f60209050601f8311600181146119bd575f84156119ab578287015190505b6119b5858261193a565b865550611a1c565b601f1984166119cb866117b8565b5f5b828110156119f2578489015182556001820191506020850194506020810190506119cd565b86831015611a0f5784890151611a0b601f89168261191e565b8355505b6001600288020188555050505b505050505050565b828183375f83830152505050565b5f611a3d8385611281565b9350611a4a838584611a24565b611a53836112b9565b840190509392505050565b5f60a082019050611a715f83018961106a565b611a7e6020830188611268565b8181036040830152611a91818688611a32565b9050611aa06060830185611314565b611aad6080830184611332565b979650505050505050565b5f81905092915050565b50565b5f611ad05f83611ab8565b9150611adb82611ac2565b5f82019050919050565b5f611aef82611ac5565b9150819050919050565b7f426f756e7479207472616e73666572206661696c6564000000000000000000005f82015250565b5f611b2d601683611281565b9150611b3882611af9565b602082019050919050565b5f6020820190508181035f830152611b5a81611b21565b905091905056fea2646970667358221220c1b9ee8860b132cbf98a0ca64ecd3d5c7afd61081f43b581fe4c0231243ad68264736f6c63430008180033","linkReferences":{}},"methodIdentifiers":{"attest(address,uint8,uint8,string)":"c01f4af6","attestationAge(address)":"5eab0c5f","bountyOf(address)":"94412943","fundScreening(address)":"58785ac8","getAttestation(address)":"f9b71797","isFlagged(address)":"fef48a99","isSafe(address)":"769a28ac","isScreened(address)":"10c132b2","scoreOf(address)":"133af456","totalAttestations()":"60485742"},"id":0}